:020000040000FA
:100000008501860132309F008316803086000730DC
:1000100085008312061686129120061286169E20EF
:10002000061686129120061286169E200616861245
:100030009120061286169E20061686129120061220
:1000400086169E20061686129120061286169E207F
:10005000061686129120061286169E20852006120C
:1000600086120616861F3B281F0880390319302880
:1000700086160612322891208B20061686129120B1
:100080000616861286110615861F81281F0840391C
:100090000319442886159120912086119E2006116F
:1000A00006128616912006168612912006128616D2
:1000B00091200616861291200612861691200616A9
:1000C000861291200612861691200616861291201D
:1000D00006128616912006168612912006128616A2
:1000E0009120061686129120061286169120061679
:1000F0008612912006128616912006168612061583
:1001000044289120061206110A288316E5309F0024
:100110008312912008008316E3309F008312912000
:100120000800FA30A500C730A6000130A700A60BD2
:100130009A28A70B9728A50B932800346430A500B4
:10014000C730A6000130A700A60BA728A70BA4283C
:06015000A50BA0280034FD
:02400E00183F59
:00000001FF
